{
  "contractName": "NewToken",
  "abi": [
    {
      "constant": true,
      "inputs": [],
      "name": "totalSupply",
      "outputs": [
        {
          "name": "",
          "type": "uint256"
        }
      ],
      "payable": false,
      "stateMutability": "view",
      "type": "function"
    },
    {
      "inputs": [],
      "payable": false,
      "stateMutability": "nonpayable",
      "type": "constructor"
    }
  ],
  "bytecode": "0x608060405234801561001057600080fd5b50620f4240600081905550609e806100296000396000f300608060405260043610603f576000357c0100000000000000000000000000000000000000000000000000000000900463ffffffff16806318160ddd146044575b600080fd5b348015604f57600080fd5b506056606c565b6040518082815260200191505060405180910390f35b600054815600a165627a7a72305820783732a18c90a1a0a2e7eebb062a722103927ab08d17c1489810457a4cc9f0120029",
  "source": "pragma solidity ^0.4.2;\r\n\r\ncontract NewToken{\r\n\tuint256 public totalSupply;\r\n\t\r\n\tfunction NewToken() public{\r\n\t\ttotalSupply=1000000;\r\n\t}\r\n}",
  "sourcePath": "C:\\token_sale\\contracts\\NewToken.sol",
  "compiler": {
    "name": "solc",
    "version": "0.4.24+commit.e67f0147.Emscripten.clang"
  },
  "schemaVersion": "2.0.0",
  "updatedAt": "2018-06-20T17:41:06.593Z"
}